S01700004763634170706C69636174696F6E362E7372656356
S11300000C9434000C9446000C9446000C94460066
S11300100C9446000C9446000C9446000C94460044
S11300200C9446000C9446000C9446000C94460034
S11300300C9446000C9446000C9446000C94460024
S11300400C9446000C9446000C9446000C94460014
S11300500C9446000C9446000C9446000C94460004
S11300600C9446000C94460011241FBECFEFD8E038
S1130070DEBFCDBF21E0A0E0B1E001C01D92A230FF
S1130080B207E1F70E94C7000C94DF000C94000053
S1130090209A28982FEF80EE90E0215080409040E5
S11300A0E1F700C00000289A25ED2A95F1F7000039
S11300B02098089527E030E080E041E050E0189B6C
S11300C0FECF90EA9A95F1F7189B07C0BA01022E69
S11300D001C0660F0A94EAF7862B1899FECF2150C7
S11300E0310968F70895CF92DF92EF92FF921F9340
S11300F0CF93DF9300D000D01F92CDB7DEB70E941C
S1130100480083B1182F117080FF02C010E031C085
S11301108FE391E00197F1F700C00000189BF6CF40
S1130120EFE3F1E03197F1F700C00000CE01019652
S11301307C016E0196E0C90ED11C0E945A00F701A1
S113014081937F01EC15FD05C1F789819A81982778
S11301508927982739812A81230F3B81230F3C81EA
S1130160230F3D81231305C0909301018093000167
S113017011E0812F0F900F900F900F900F90DF914F
S1130180CF911F91FF90EF90DF90CF900895579AF1
S11301905F982FEF87EA91E6215080409040E1F785
S11301A000C000000E947300882399F3809100012D
S11301B0909101018039914058F75F9AEACFF89401
S10501C0FFCF6B
S9030000FC
