S01700004763634170706C69636174696F6E362E7372656356
S11300000C9434000C94E1000C9446000C944600CB
S11300100C9446000C9446000C9446000C94460044
S11300200C9446000C9446000C9446000C940F016A
S11300300C9446000C9446000C9446000C94460024
S11300400C9446000C9446000C9446000C94460014
S11300500C9446000C9446000C9446000C94460004
S11300600C9446000C94460011241FBECFEFD8E038
S1130070DEBFCDBF21E0A0E0B1E001C01D92A730FA
S1130080B207E1F70E9446010C94B6010C940000FB
S113009084B1816084B985B18E7F85B92FEF80EEFC
S11300A090E0215080409040E1F700C0000085B10D
S11300B0816085B925ED2A95F1F7000084B18E7F22
S11300C084B9089520E030E080E017C0189BFECF8B
S11300D090EA9A95F1F7189B0CC067E070E0621BF8
S11300E0730B41E050E002C0440F551F6A95E2F7DC
S11300F0842B1899FECF2F5F3F4F2830310534F3FE
S11301000895FF920F931F93CF93DF9300D000D0F5
S11301101F92CDB7DEB70E94480083B1982F91702B
S1130120F92E80FD40C08FE391E00197F1F700C004
S1130130000093B1892F817090FF38C08FE391E064
S11301400197F1F700C0000000E010E00BC00E942E
S11301506200E1E0F0E0EC0FFD1FE00FF11F80838F
S11301600F5F1F4F0530110594F329815A819B813C
S11301704C81822F850F890F840F3D81831315C015
S113018030E0322F2227252B3093030120930201E4
S1130190892F90E0982F8827842B909301018093D6
S11301A0000181E003C080E001C08F2D0F900F900B
S11301B00F900F900F90DF91CF911F910F91FF90AF
S11301C008951F920F920FB60F9211242F938F93BD
S11301D09F939091040181E0911180E08093040148
S11301E080910401882339F08BB18F718BB985B16B
S11301F0846085B903C085B18B7F85B92FEF83EC0B
S113020099E0215080409040E1F700C000009F91A8
S11302108F912F910F900FBE0F901F9018951F92E2
S11302200F920FB60F9211248F93809104018111C4
S113023027C0809106018F5F809306015F9B0DC0EC
S1130240809105018F5F80930501809105018530C0
S113025030F08BB18F778BB902C010920501809179
S113026006018A3020F48BB180628BB903C08BB154
S11302708F7D8BB980910601843110F010920601B4
S11302808F910F900FBE0F901F9018958AB1806EBA
S11302908AB984B1846084B98BB18F718BB985B10B
S11302A08B7F85B98AB18B7F8AB98BB184608BB916
S11302B0E1E8F0E080818860808389E09DE39093A9
S11302C0890080938800AFE6B0E08C9182608C93C3
S11302D0808185608083E9E6F0E0808182608083AC
S11302E08DB381608DBB789480910401811134C0F9
S11302F02FEF87EA91E6215080409040E1F700C05B
S113030000000E948100882379F38091000190917C
S113031001018D32914020F08BB180648BB903C010
S11303208BB18F7B8BB9809102019091030180394D
S1130330914038F480910501811103C08BB180682C
S11303408BB98091020190910301833C914060F24A
S11303508BB18F778BB9C8CF8BB18F778BB98BB1BA
S11303608F7B8BB98BB18F7D8BB9BECFF894FFCFC8
S9030000FC
